S01300004C43445F484434343738302E737265634C
S11300000C94B1000C94CE000C94CE000C94CE0051
S11300100C94CE000C94CE000C94CE000C94CE0024
S11300200C94CE000C94CE000C94CE000C94CE0014
S11300300C94CE000C94CE000C94CE000C94CE0004
S11300400C94CE000C94CE000C94CE000C94CE00F4
S11300500C94CE000C94CE000C94CE000C94CE00E4
S11300600C94CE000C94CE0000407A10F35A00A0F9
S1130070724E18090010A5D4E80000E8764817006D
S113008000E40B54020000CA9A3B000000E1F505AD
S1130090000080969800000040420F000000A086F7
S11300A001000000102700000000E8030000000029
S11300B06400000000000A000000000001000000CD
S11300C000002C76D888DC674F0823DFC1DFAE59E7
S11300D0E1B1B796E5E3E453C63AE651997696E87A
S11300E0E6C28426EB898C9B62ED407C6FFCEFBCFE
S11300F09C9F40F2BAA56FA5F490055A2AF75C9329
S11301006B6CF9676DC11BFCE0E40D47FEF520E65E
S1130110B500D0ED902E0300943577050080841E41
S1130120080000204E0A000000C80C333333330F9C
S1130130986E12831141EF8D2114893BE65516CF39
S1130140FEE6DB18D1844B381BF77C1D901DA4BB45
S1130150E424203284725E228100C9F124ECA1E5FA
S11301603D2711241FBECFEFD8E0DEBFCDBF11E085
S1130170A0E0B1E0E4E5F9E002C005900D92AE32F2
S1130180B107D9F721E0AEE2B1E001C01D92A63378
S1130190B207E1F70E9484010C94A8040C940000B7
S11301A080FF02C05D9A01C05D9881FF02C05E9A23
S11301B001C05E9882FF02C05F9A01C05F9883FF0E
S11301C002C0289A01C028985C9A87EC90E00197B5
S11301D0F1F700C000005C980895CF93C82F5B9896
S11301E0000082958F700E94D0008C2F8F700E9427
S11301F0D0008FE99FE00197F1F700C00000CF9194
S11302000895539A549A5C985B98559A569A579ABB
S1130210209A2FEF89EF90E0215080409040E1F741
S113022000C0000083E00E94D0008FE19EE40197AB
S1130230F1F700C0000083E00E94D0008FE19EE44B
S11302400197F1F700C0000083E00E94D0008FE125
S11302509EE40197F1F700C0000083E30E94ED00E3
S113026082E30E94ED0088E20E94ED008CE00E948F
S1130270ED0086E00E94ED0081E00E94ED008FED2C
S11302809EE20197F1F700C000000895CF93C82FB4
S11302905B9A000082958F700E94D0008C2F8F7023
S11302A00E94D0008FE99FE00197F1F700C00000A1
S11302B0CF910895CF93DF93EC018881882331F0A7
S11302C021960E94460189918111FBCFDF91CF9144
S11302D008950F931F93CF93DF93883080F48B019D
S11302E0880F880F880F805C0E94ED00E801085F8A
S11302F01F4F89910E944601C017D107D1F7DF91A2
S1130300CF911F910F910895CF93DF93CDB7DEB7AF
S113031028970FB6F894DEBF0FBECDBF88E0E6E0A5
S1130320F1E0DE01119601900D928A95E1F70E94A9
S11303300101BE016F5F7F4F80E00E94690180E888
S11303400E94ED008EE091E00E945A014AE06EE2C4
S113035071E080910001909101010E940A028EE2F5
S113036091E00E945A0180EC0E94ED0086E191E048
S11303700E945A0140E16EE271E080910001909187
S113038001010E940A028EE291E00E945A0184E96E
S11303900E94ED008EE191E00E945A0160910201F9
S11303A07091030180910401909105010EE211E026
S11303B022E045E00E94EA01C8010E945A0184ED4E
S11303C00E94ED0086E291E00E945A0180E00E94C2
S11303D04601FFCFEF920F931F93CF93DF93E80172
S11303E047FD02C034E001C034E1042E000C550B7B
S11303F057FF03C0519541955109E32E022F242F35
S1130400AE010E942F02CE01DF91CF911F910F9177
S1130410EF900895BB274A3031F4992322F4BDE2CA
S1130420909581959F4F0C941602BB27FB0155278D
S1130430AA27880F991FAA1FA41710F0A41B83953D
S11304405051B9F7A05DAA3308F0A95DA1930097B4
S113045079F7B111B1931192CB010C946104A9E025
S1130460B0E0E5E3F2E00C9477046A01122FB02EB9
S11304702BE3201720F0FF24F394F00E02C02CE3AA
S1130480F22E0F2D27E0AE014F5F5F4F0E948903CC
S1130490BC014981842F8970813031F0E1FC06C0B0
S11304A0E0FE06C090E205C09DE203C09BE201C0ED
S11304B090E05E2D507143FF3CC0911102C083E077
S11304C001C084E0811718F4212F281B01C020E00B
S11304D051110BC0F601822F30E2882319F03193B9
S11304E08150FBCFC20ED11C20E0992329F0D60104
S11304F09C93F60131966F01C6010396E2FE0AC091
S11305003EE4D6013C9341E411964C931197129624
S11305103C9306C03EE6F601308341E641833283D4
S1130520FC01322F40E2332309F442C0419331509D
S1130530FACF42FF44C0911102C083E001C084E0BD
S1130540811718F4212F281B01C020E051110BC082
S1130550F601822F30E2882319F031938150FBCFCA
S1130560C20ED11C20E0992329F0D6019C93F601F8
S113057031966F01C6010396E2FE0BC039E4D60141
S11305803C933EE411963C93119736E412963C93C7
S113059007C039E6F60130833EE6318336E632831E
S11305A0FC01322F40E2332319F041933150FBCF49
S11305B0FC01E20FF11D10828EEF9FEFA6C021E037
S11305C030E0911102C020E030E0161617061CF44A
S11305D0FB01319602C0E1E0F0E02E0F3F1FBB208B
S11305E021F0EB2DF0E0319602C0E0E0F0E02E0FB8
S11305F03F1FE12FF0E02E173F071CF4121B212FA1
S113060001C020E08E2D887159F4F601822F30E26A
S1130610882319F031938150FBCFC20ED11C20E006
S1130620992329F0D6019C93F60131966F0151115B
S11306300BC0F601822F90E3882319F09193815027
S1130640FBCFC20ED11C20E00F2D060F9A81342F50
S1130650307144FF03C0913309F40150101624F49F
S1130660093018F008E001C001E0AB0177FF02C0D7
S113067040E050E0FB01E41BF50BA1E0B0E0AC0F5F
S1130680BD1FEA0FFB1F8EE2A82E4B01801A9108B2
S11306900B2D10E01195019511094F3FBFEF5B073A
S11306A021F4D601AC9211966D01641775072CF0F4
S11306B08416950614F4818101C080E341505109E8
S11306C03196D60111967D014017510724F0D601C9
S11306D08C936701E2CF6417750739F4963320F4DD
S11306E0953319F4311101C081E3F6018083F701D8
S11306F0822F90E2882319F091938150FBCFF70168
S1130700E20FF11D108280E090E02996ECE00C9459
S11307109304283008F027E03327DA01990F311DBC
S113072087FD916000966105710539F432602E5F92
S11307303D9330E32A95E1F708959F3F30F08038E8
S11307407105610509F03C5F3C5F3D93913008F011
S11307508068911DDF93CF931F930F93FF92EF92C5
S1130760192F987F9695E92F96959695E90FFF276F
S1130770EE53FF4F99273327EE24FF24A701E70107
S113078005900894079428F4360FE71EF81E491FB5
S1130790511D660F771F881F991F0694A1F70590B6
S11307A0079428F4E70EF81E491F561FC11D770F42
S11307B0881F991F661F0694A1F70590079428F4D3
S11307C0F80E491F561FC71FD11D880F991F661F9A
S11307D0771F0694A1F70590079420F4490F561F3C
S11307E0C71FD81F990F661F771F881F0694A9F784
S11307F084911095177041F0D695C79557954795F4
S1130800F794E7941A95C1F7E8E6F0E06894159038
S1130810159135916591959105907FE27395E11855
S1130820F10A430B560BC90BD009C0F7E10CF11EBA
S1130830431F561FC91FD01D7EF4703311F48A95CF
S1130840E6CFE894015030F0080F0AF400270217AD
S113085008F4202F2395022F7A3328F079E37D932F
S11308602A95E9F710C07D932A9589F60694979501
S11308706795379517951794E118F10A430B560BB2
S1130880C90BD00998F023957E9173957A3308F0BB
S113089070E37C932013B8F77E9170617D9330F000
S11308A0839571E37D9370E32A95E1F71124EF902A
S11308B0FF900F911F91CF91DF91992787FD90951C
S11308C00895DC01FC01672F71917723E1F73297DA
S11308D004C07C916D9370836291AE17BF07C8F317
S11308E008952F923F924F925F926F927F928F92D0
S11308F09F92AF92BF92CF92DF92EF92FF920F93AB
S11309001F93CF93DF93CDB7DEB7CA1BDB0B0FB6B4
S1130910F894DEBF0FBECDBF09942A883988488871
S11309205F846E847D848C849B84AA84B984C88407
S1130930DF80EE80FD800C811B81AA81B981CE0FFE
S1130940D11D0FB6F894DEBF0FBECDBFED010895E3
S1070950F894FFCF45
S113095400FCC3F5C841000A0A0A00110E004C69E0
S11309646E65613120004C696E65613220004C690A
S11109746E65613320004C696E6561342000AD
S9030000FC
